:020000020000FC
:1000000012C0189518951895189518951895189563
:10001000189518951895A2C01895189518951895C3
:100020001895189518950FED0DBF0FE107BB0FEF51
:1000300008BB00E401BB0FE702BB05E003BF05E01E
:100040000EBD00E808B900E20BBF01E000BDDFE033
:10005000C0EA969AC398C198789486993CC08099D2
:1000600003C0B1E0A4EF0EC0B59903C0B0E0AAEFA1
:1000700009C0B69903C0B0E0ADE704C0B7992BC082
:10008000B0E0AEE3C49873D0C49A71D07AD0DB17D5
:1000900080F4CA1770F4FD2FFF27EC2FF03011F415
:1000A000E030C9F04BD063D0C49861D0C49A5FD01F
:1000B00012C0CA1BDB0BD03011F4C03049F0FB2F4B
:1000C000EA2F3CD054D0C49852D0C49A50D0DECF3E
:1000D000FB2FEA2F33D0DFE0C0EA819907C047D079
:1000E000C19B01C002C0C19A01C0C198849907C0D8
:1000F0003ED0969B01C002C09698F8CF969A869BF8
:10010000EACF82990CC033D0C198FF27EBE016D01C
:10011000829BECCF2CD0C4982AD0C49A28D0839943
:100120009CCF25D0C19AFF27EBE008D0839BF7CF67
:100130001ED0C4981CD0C49A1AD08FCFF03011F4BE
:10014000E03051F0C2981DD0C29A1BD0F03011F4AB
:10015000E03011F03197F2CFC29A0895B09906C0FD
:10016000FF27EE27DD27CC27BB27AA2718950027D6
:100170000DBD0CBD0CB50A3FE8F30DB50030D0F352
:0E0180000895002702BF02B70530E8F3089586
:00000001FF
