:020000020000FC
:1000000012C0189518951895189518951895189563
:100010001895189518959AC01895189518951895CB
:100020001895189518950FED0DBF0FE107BB0FEF51
:1000300008BB00E401BB0FE702BB05E003BF05E01E
:100040000EBD00E808B900E20BBF01E000BDDFE033
:10005000C0EA969AC398C1987894969934C08099CA
:1000600003C0B1E0A4EF0EC0B59903C0B0E0AAEFA1
:1000700009C0B69903C0B0E0ADE704C0B79923C08A
:10008000B0E0A0E5C4986BD0C49A69D072D0BD1717
:1000900040F0AC1730F0FD2FEC2FE030A1F046D04F
:1000A00012C0CA1BDB0BD03011F4C03049F0FB2F5B
:1000B000EA2F3CD054D0C49852D0C49A50D0E6CF46
:1000C000FB2FEA2F33D0DFE0C0EA819907C047D089
:1000D000C19B01C002C0C19A01C0C198849907C0E8
:1000E0003ED0969B01C002C0969AF8CF96989699FA
:1000F000EACF82990CC033D0C198FF27EBE016D02D
:10010000829BECCF2CD0C4982AD0C49A28D0839953
:10011000A4CF25D0C19AFF27EBE008D0839BF7CF6F
:100120001ED0C4981CD0C49A1AD097CFF03011F4C6
:10013000E03051F0C2981DD0C29A1BD0F03011F4BB
:10014000E03011F03197F2CFC29A0895B09906C00D
:10015000FF27EE27DD27CC27BB27AA2718950027E6
:100160000DBD0CBD0CB50A3FE8F30DB50030D0F362
:0E0170000895002702BF02B70530E8F3089596
:00000001FF
